{
  "contractName": "Storage",
  "abi": [
    {
      "constant": false,
      "inputs": [
        {
          "name": "x",
          "type": "uint256"
        }
      ],
      "name": "set",
      "outputs": [],
      "payable": false,
      "stateMutability": "nonpayable",
      "type": "function"
    },
    {
      "constant": true,
      "inputs": [],
      "name": "get",
      "outputs": [
        {
          "name": "",
          "type": "uint256"
        }
      ],
      "payable": false,
      "stateMutability": "view",
      "type": "function"
    }
  ],
  "bytecode": "0x608060405234801561001057600080fd5b5060e68061001f6000396000f3fe6080604052600436106043576000357c01000000000000000000000000000000000000000000000000000000009004806360fe47b11460485780636d4ce63c14607f575b600080fd5b348015605357600080fd5b50607d60048036036020811015606857600080fd5b810190808035906020019092919050505060a7565b005b348015608a57600080fd5b50609160b1565b6040518082815260200191505060405180910390f35b8060008190555050565b6000805490509056fea165627a7a72305820d16c6b7e8bc2d2adbccec5c040f4ec581c95049a6a735ba092222ba5904688450029",
  "source": "pragma solidity >=0.4.22 <0.9.0;\r\n\r\ncontract Storage {\r\n    uint256 storedData;\r\n    function set(uint256 x) public {\r\n        storedData = x;\r\n    }\r\n\r\n    function get() public view returns (uint256) {\r\n        return storedData;\r\n    }\r\n}",
  "sourcePath": "C:/Users/DELL PC/Desktop/ERC20Implementation/contracts/Storage.sol",
  "compiler": {
    "name": "solc",
    "version": "0.5.1+commit.c8a2cb62.Emscripten.clang"
  },
  "schemaVersion": "3.3.4",
  "updatedAt": "2021-04-03T18:28:29.602Z",
  "devdoc": {
    "methods": {}
  },
  "userdoc": {
    "methods": {}
  }
}